{
  "contractName": "Twitter",
  "abi": [
    {
      "anonymous": false,
      "inputs": [
        {
          "indexed": false,
          "name": "id",
          "type": "uint256"
        },
        {
          "indexed": false,
          "name": "author",
          "type": "address"
        },
        {
          "indexed": false,
          "name": "content",
          "type": "string"
        },
        {
          "indexed": false,
          "name": "timestamp",
          "type": "uint256"
        }
      ],
      "name": "TweetCreated",
      "type": "event"
    },
    {
      "anonymous": false,
      "inputs": [
        {
          "indexed": false,
          "name": "liker",
          "type": "address"
        },
        {
          "indexed": false,
          "name": "tweetAuthor",
          "type": "address"
        },
        {
          "indexed": false,
          "name": "tweetId",
          "type": "uint256"
        },
        {
          "indexed": false,
          "name": "newLikeCount",
          "type": "uint256"
        }
      ],
      "name": "TweetLiked",
      "type": "event"
    },
    {
      "anonymous": false,
      "inputs": [
        {
          "indexed": false,
          "name": "unliker",
          "type": "address"
        },
        {
          "indexed": false,
          "name": "tweetAuthor",
          "type": "address"
        },
        {
          "indexed": false,
          "name": "tweetId",
          "type": "uint256"
        },
        {
          "indexed": false,
          "name": "newLikeCount",
          "type": "uint256"
        }
      ],
      "name": "TweetUnliked",
      "type": "event"
    },
    {
      "constant": false,
      "inputs": [
        {
          "name": "content",
          "type": "string"
        }
      ],
      "name": "storeTweet",
      "outputs": [],
      "payable": false,
      "stateMutability": "nonpayable",
      "type": "function"
    },
    {
      "constant": true,
      "inputs": [
        {
          "name": "author",
          "type": "address"
        },
        {
          "name": "id",
          "type": "uint256"
        }
      ],
      "name": "getTweet",
      "outputs": [
        {
          "name": "",
          "type": "string"
        }
      ],
      "payable": false,
      "stateMutability": "view",
      "type": "function"
    },
    {
      "constant": true,
      "inputs": [
        {
          "name": "author",
          "type": "address"
        }
      ],
      "name": "getTweets",
      "outputs": [
        {
          "components": [
            {
              "name": "content",
              "type": "string"
            },
            {
              "name": "timestamp",
              "type": "uint256"
            },
            {
              "name": "author",
              "type": "address"
            },
            {
              "name": "id",
              "type": "uint256"
            },
            {
              "name": "likes",
              "type": "uint256"
            }
          ],
          "name": "",
          "type": "tuple[]"
        }
      ],
      "payable": false,
      "stateMutability": "view",
      "type": "function"
    },
    {
      "constant": false,
      "inputs": [
        {
          "name": "author",
          "type": "address"
        },
        {
          "name": "id",
          "type": "uint256"
        }
      ],
      "name": "likeTweet",
      "outputs": [],
      "payable": false,
      "stateMutability": "nonpayable",
      "type": "function"
    },
    {
      "constant": false,
      "inputs": [
        {
          "name": "author",
          "type": "address"
        },
        {
          "name": "id",
          "type": "uint256"
        }
      ],
      "name": "unlikeTweet",
      "outputs": [],
      "payable": false,
      "stateMutability": "nonpayable",
      "type": "function"
    },
    {
      "constant": true,
      "inputs": [
        {
          "name": "user",
          "type": "address"
        }
      ],
      "name": "getTotalLikes",
      "outputs": [
        {
          "name": "",
          "type": "uint256"
        }
      ],
      "payable": false,
      "stateMutability": "view",
      "type": "function"
    }
  ],
  "bytecode": "0x608060405234801561001057600080fd5b5061102a806100206000396000f3fe608060405260043610610072576000357c010000000000000000000000000000000000000000000000000000000090048063112f54e3146100775780633d9b569f146100b45780635e186985146100dd5780636337821614610106578063820785cc1461012f5780639e92b0931461016c575b600080fd5b34801561008357600080fd5b5061009e60048036036100999190810190610b3a565b6101a9565b6040516100ab9190610dd2565b60405180910390f35b3480156100c057600080fd5b506100db60048036036100d69190810190610b3a565b6102a8565b005b3480156100e957600080fd5b5061010460048036036100ff9190810190610b76565b610453565b005b34801561011257600080fd5b5061012d60048036036101289190810190610b3a565b61061d565b005b34801561013b57600080fd5b5061015660048036036101519190810190610b11565b610726565b6040516101639190610e14565b60405180910390f35b34801561017857600080fd5b50610193600480360361018e9190810190610b11565b6107f4565b6040516101a09190610db0565b60405180910390f35b60606000808473ffffffffffffffffffffffffffffffffffffffff1673ffffffffffffffffffffffffffffffffffffffff168152602001908152602001600020828154811015156101f657fe5b90600052602060002090600502016000018054600181600116156101000203166002900480601f01602080910402602001604051908101604052809291908181526020018280546001816001161561010002031660029004801561029b5780601f106102705761010080835404028352916020019161029b565b820191906000526020600020905b81548152906001019060200180831161027e57829003601f168201915b5050505050905092915050565b60008060008473ffffffffffffffffffffffffffffffffffffffff1673ffffffffffffffffffffffffffffffffffffffff168152602001908152602001600020828154811015156102f557fe5b906000526020600020906005020160040154111515610349576040517f08c379a000000000000000000000000000000000000000000000000000000000815260040161034090610df4565b60405180910390fd5b6000808373ffffffffffffffffffffffffffffffffffffffff1673ffffffffffffffffffffffffffffffffffffffff1681526020019081526020016000208181548110151561039457fe5b906000526020600020906005020160040160008154809291906001900391905055507f762c2616349603ac16eba0de8e6141b79129a07ab63bd99e0a80b3a4717169433383836000808773ffffffffffffffffffffffffffffffffffffffff1673ffffffffffffffffffffffffffffffffffffffff1681526020019081526020016000208581548110151561042557fe5b9060005260206000209060050201600401546040516104479493929190610d6b565b60405180910390a15050565b61045b6109a8565b60a0604051908101604052808381526020014281526020013373ffffffffffffffffffffffffffffffffffffffff1681526020016000803373ffffffffffffffffffffffffffffffffffffffff1673ffffffffffffffffffffffffffffffffffffffff168152602001908152602001600020805490508152602001600081525090506000803373ffffffffffffffffffffffffffffffffffffffff1673ffffffffffffffffffffffffffffffffffffffff168152602001908152602001600020819080600181540180825580915050906001820390600052602060002090600502016000909192909190915060008201518160000190805190602001906105639291906109ee565b506020820151816001015560408201518160020160006101000a81548173ffffffffffffffffffffffffffffffffffffffff021916908373ffffffffffffffffffffffffffffffffffffffff16021790555060608201518160030155608082015181600401555050507f16fd3c13e9d46923e0a8bce11c7b473ec508a72e6c96cd2404b29ce972afc29e81606001518260400151836000015184602001516040516106119493929190610e2f565b60405180910390a15050565b6000808373ffffffffffffffffffffffffffffffffffffffff1673ffffffffffffffffffffffffffffffffffffffff1681526020019081526020016000208181548110151561066857fe5b9060005260206000209060050201600401600081548092919060010191905055507fe8a76fc0f16d11a00d1e93b689b63d76cf60af914dd3d915375dc41d01a0c3c83383836000808773ffffffffffffffffffffffffffffffffffffffff1673ffffffffffffffffffffffffffffffffffffffff168152602001908152602001600020858154811015156106f857fe5b90600052602060002090600502016004015460405161071a9493929190610d6b565b60405180910390a15050565b6000806000905060008090505b6000808573ffffffffffffffffffffffffffffffffffffffff1673ffffffffffffffffffffffffffffffffffffffff168152602001908152602001600020805490508110156107ea576000808573ffffffffffffffffffffffffffffffffffffffff1673ffffffffffffffffffffffffffffffffffffffff168152602001908152602001600020818154811015156107c757fe5b906000526020600020906005020160040154820191508080600101915050610733565b5080915050919050565b60606000808373ffffffffffffffffffffffffffffffffffffffff1673ffffffffffffffffffffffffffffffffffffffff168152602001908152602001600020805480602002602001604051908101604052809291908181526020016000905b8282101561099d578382906000526020600020906005020160a06040519081016040529081600082018054600181600116156101000203166002900480601f0160208091040260200160405190810160405280929190818152602001828054600181600116156101000203166002900480156109115780601f106108e657610100808354040283529160200191610911565b820191906000526020600020905b8154815290600101906020018083116108f457829003601f168201915b50505050508152602001600182015481526020016002820160009054906101000a900473ffffffffffffffffffffffffffffffffffffffff1673ffffffffffffffffffffffffffffffffffffffff1673ffffffffffffffffffffffffffffffffffffffff1681526020016003820154815260200160048201548152505081526020019060010190610854565b505050509050919050565b60a0604051908101604052806060815260200160008152602001600073ffffffffffffffffffffffffffffffffffffffff16815260200160008152602001600081525090565b828054600181600116156101000203166002900490600052602060002090601f016020900481019282601f10610a2f57805160ff1916838001178555610a5d565b82800160010185558215610a5d579182015b82811115610a5c578251825591602001919060010190610a41565b5b509050610a6a9190610a6e565b5090565b610a9091905b80821115610a8c576000816000905550600101610a74565b5090565b90565b6000610a9f8235610f4b565b905092915050565b600082601f8301121515610aba57600080fd5b8135610acd610ac882610ea8565b610e7b565b91508082526020830160208301858383011115610ae957600080fd5b610af4838284610f9d565b50505092915050565b6000610b098235610f5d565b905092915050565b600060208284031215610b2357600080fd5b6000610b3184828501610a93565b91505092915050565b60008060408385031215610b4d57600080fd5b6000610b5b85828601610a93565b9250506020610b6c85828601610afd565b9150509250929050565b600060208284031215610b8857600080fd5b600082013567ffffffffffffffff811115610ba257600080fd5b610bae84828501610aa7565b91505092915050565b610bc081610f67565b82525050565b610bcf81610f0f565b82525050565b6000610be082610ee1565b80845260208401935083602082028501610bf985610ed4565b60005b84811015610c32578383038852610c14838351610ce6565b9250610c1f82610f02565b9150602088019750600181019050610bfc565b508196508694505050505092915050565b6000610c4e82610ef7565b808452610c62816020860160208601610fac565b610c6b81610fdf565b602085010191505092915050565b6000610c8482610eec565b808452610c98816020860160208601610fac565b610ca181610fdf565b602085010191505092915050565b6000601782527f63616e277420756e6c696b6520746869732074776565740000000000000000006020830152604082019050919050565b600060a0830160008301518482036000860152610d038282610c79565b9150506020830151610d186020860182610d5c565b506040830151610d2b6040860182610bc6565b506060830151610d3e6060860182610d5c565b506080830151610d516080860182610d5c565b508091505092915050565b610d6581610f41565b82525050565b6000608082019050610d806000830187610bb7565b610d8d6020830186610bc6565b610d9a6040830185610d5c565b610da76060830184610d5c565b95945050505050565b60006020820190508181036000830152610dca8184610bd5565b905092915050565b60006020820190508181036000830152610dec8184610c43565b905092915050565b60006020820190508181036000830152610e0d81610caf565b9050919050565b6000602082019050610e296000830184610d5c565b92915050565b6000608082019050610e446000830187610d5c565b610e516020830186610bc6565b8181036040830152610e638185610c79565b9050610e726060830184610d5c565b95945050505050565b6000604051905081810181811067ffffffffffffffff82111715610e9e57600080fd5b8060405250919050565b600067ffffffffffffffff821115610ebf57600080fd5b601f19601f8301169050602081019050919050565b6000602082019050919050565b600081519050919050565b600081519050919050565b600081519050919050565b6000602082019050919050565b6000610f1a82610f21565b9050919050565b600073ffffffffffffffffffffffffffffffffffffffff82169050919050565b6000819050919050565b6000610f5682610f21565b9050919050565b6000819050919050565b6000610f7282610f79565b9050919050565b6000610f8482610f8b565b9050919050565b6000610f9682610f21565b9050919050565b82818337600083830152505050565b60005b83811015610fca578082015181840152602081019050610faf565b83811115610fd9576000848401525b50505050565b6000601f19601f830116905091905056fea265627a7a72305820d036c364ec64412307ece671bf65ba22b4c10e7d88c9d59114f893b0a5d3fd606c6578706572696d656e74616cf50037",
  "source": "// SPDX-License-Identifier: MIT\npragma solidity 0.5.1;\npragma experimental ABIEncoderV2;\n\n// interface IUser {\n//   struct user{\n//         string name;\n//         string biodata;\n//     }\n//   function getProfile(address Useraddress) external returns(user memory);\n// }\ncontract Twitter {\n  \n  struct tweets{\n  string content;\n  uint256 timestamp;\n  address author;\n  uint id;\n  uint likes;\n}\n\nmapping(address => tweets[]) tweet;\n\nevent TweetCreated(uint id, address author, string content, uint256 timestamp);\nevent TweetLiked(address liker, address tweetAuthor, uint256 tweetId, uint256 newLikeCount);\nevent TweetUnliked(address unliker, address tweetAuthor, uint256 tweetId, uint256 newLikeCount);\n\n// IUser userContract;\n// constructor(address UserContractAddress)\n// {\n//   userContract = IUser(UserContractAddress);\n// }\n\n// modifier onlyRegistered(){\n//   IUser.user memory newuser = userContract.getProfile(msg.sender);\n//   require(bytes(newuser.name).length>0, \"you don't have a profile\");\n//   _;\n// }\n//store tweets\nfunction storeTweet(string memory content) public {\n  tweets memory onetweet = tweets({\n    content:content,\n    timestamp: block.timestamp,\n    author: msg.sender,\n    id: tweet[msg.sender].length,\n    likes:0\n  });\n  tweet[msg.sender].push(onetweet);\n  emit TweetCreated(onetweet.id, onetweet.author, onetweet.content, onetweet.timestamp);\n}\n\n//get a particular tweet\nfunction getTweet(address author, uint id) public view returns(string memory){\n  return tweet[author][id].content;\n}\n\nfunction getTweets(address author) public view returns(tweets[] memory){\n  return tweet[author];\n}\n\n\n\n//like tweet\nfunction likeTweet(address author, uint id) external {\n  tweet[author][id].likes++;\n  emit TweetLiked(msg.sender, author, id, tweet[author][id].likes);\n}\n\n//unlike tweet\nfunction unlikeTweet(address author, uint id) external {\n  require(tweet[author][id].likes >0, \"can't unlike this tweet\");\n  tweet[author][id].likes--;\n  emit TweetUnliked(msg.sender, author, id, tweet[author][id].likes);\n}\n\n//function to calculate total tweet likes for the user\nfunction getTotalLikes(address user) public view returns(uint){\n  uint total = 0;\n  for(uint i = 0; i<tweet[user].length;i++ ){\n    total += tweet[user][i].likes;\n  }\n  return total;\n}\n  \n}",
  "sourcePath": "/Users/admin/Twitter-Dapp/contracts/Twitter.sol",
  "compiler": {
    "name": "solc",
    "version": "0.5.1+commit.c8a2cb62.Emscripten.clang"
  },
  "schemaVersion": "3.4.16",
  "updatedAt": "2023-12-02T09:08:25.466Z",
  "networkType": "ethereum",
  "devdoc": {
    "methods": {}
  },
  "userdoc": {
    "methods": {}
  }
}