{
  "contractName": "Twitter",
  "abi": [
    {
      "anonymous": false,
      "inputs": [
        {
          "indexed": false,
          "name": "id",
          "type": "uint256"
        },
        {
          "indexed": false,
          "name": "author",
          "type": "address"
        },
        {
          "indexed": false,
          "name": "content",
          "type": "string"
        },
        {
          "indexed": false,
          "name": "timestamp",
          "type": "uint256"
        }
      ],
      "name": "TweetCreated",
      "type": "event"
    },
    {
      "anonymous": false,
      "inputs": [
        {
          "indexed": false,
          "name": "liker",
          "type": "address"
        },
        {
          "indexed": false,
          "name": "tweetAuthor",
          "type": "address"
        },
        {
          "indexed": false,
          "name": "tweetId",
          "type": "uint256"
        },
        {
          "indexed": false,
          "name": "newLikeCount",
          "type": "uint256"
        }
      ],
      "name": "TweetLiked",
      "type": "event"
    },
    {
      "anonymous": false,
      "inputs": [
        {
          "indexed": false,
          "name": "unliker",
          "type": "address"
        },
        {
          "indexed": false,
          "name": "tweetAuthor",
          "type": "address"
        },
        {
          "indexed": false,
          "name": "tweetId",
          "type": "uint256"
        },
        {
          "indexed": false,
          "name": "newLikeCount",
          "type": "uint256"
        }
      ],
      "name": "TweetUnliked",
      "type": "event"
    },
    {
      "constant": false,
      "inputs": [
        {
          "name": "content",
          "type": "string"
        }
      ],
      "name": "storeTweet",
      "outputs": [],
      "payable": false,
      "stateMutability": "nonpayable",
      "type": "function"
    },
    {
      "constant": true,
      "inputs": [
        {
          "name": "author",
          "type": "address"
        },
        {
          "name": "id",
          "type": "uint256"
        }
      ],
      "name": "getTweet",
      "outputs": [
        {
          "name": "",
          "type": "string"
        }
      ],
      "payable": false,
      "stateMutability": "view",
      "type": "function"
    },
    {
      "constant": false,
      "inputs": [
        {
          "name": "author",
          "type": "address"
        },
        {
          "name": "id",
          "type": "uint256"
        }
      ],
      "name": "likeTweet",
      "outputs": [],
      "payable": false,
      "stateMutability": "nonpayable",
      "type": "function"
    },
    {
      "constant": false,
      "inputs": [
        {
          "name": "author",
          "type": "address"
        },
        {
          "name": "id",
          "type": "uint256"
        }
      ],
      "name": "unlikeTweet",
      "outputs": [],
      "payable": false,
      "stateMutability": "nonpayable",
      "type": "function"
    },
    {
      "constant": true,
      "inputs": [
        {
          "name": "user",
          "type": "address"
        }
      ],
      "name": "getTotalLikes",
      "outputs": [
        {
          "name": "",
          "type": "uint256"
        }
      ],
      "payable": false,
      "stateMutability": "view",
      "type": "function"
    }
  ],
  "bytecode": "0x608060405234801561001057600080fd5b50610c2f806100206000396000f3fe608060405260043610610067576000357c010000000000000000000000000000000000000000000000000000000090048063112f54e31461006c5780633d9b569f146101405780635e1869851461019b5780636337821614610263578063820785cc146102be575b600080fd5b34801561007857600080fd5b506100c56004803603604081101561008f57600080fd5b81019080803573ffffffffffffffffffffffffffffffffffffffff16906020019092919080359060200190929190505050610323565b6040518080602001828103825283818151815260200191508051906020019080838360005b838110156101055780820151818401526020810190506100ea565b50505050905090810190601f1680156101325780820380516001836020036101000a031916815260200191505b509250505060405180910390f35b34801561014c57600080fd5b506101996004803603604081101561016357600080fd5b81019080803573ffffffffffffffffffffffffffffffffffffffff16906020019092919080359060200190929190505050610422565b005b3480156101a757600080fd5b50610261600480360360208110156101be57600080fd5b81019080803590602001906401000000008111156101db57600080fd5b8201836020820111156101ed57600080fd5b8035906020019184600183028401116401000000008311171561020f57600080fd5b91908080601f016020809104026020016040519081016040528093929190818152602001838380828437600081840152601f19601f82011690508083019250505050505050919291929050505061066a565b005b34801561026f57600080fd5b506102bc6004803603604081101561028657600080fd5b81019080803573ffffffffffffffffffffffffffffffffffffffff169060200190929190803590602001909291905050506108d7565b005b3480156102ca57600080fd5b5061030d600480360360208110156102e157600080fd5b81019080803573ffffffffffffffffffffffffffffffffffffffff169060200190929190505050610a4a565b6040518082815260200191505060405180910390f35b60606000808473ffffffffffffffffffffffffffffffffffffffff1673ffffffffffffffffffffffffffffffffffffffff1681526020019081526020016000208281548110151561037057fe5b90600052602060002090600502016000018054600181600116156101000203166002900480601f0160208091040260200160405190810160405280929190818152602001828054600181600116156101000203166002900480156104155780601f106103ea57610100808354040283529160200191610415565b820191906000526020600020905b8154815290600101906020018083116103f857829003601f168201915b5050505050905092915050565b60008060008473ffffffffffffffffffffffffffffffffffffffff1673ffffffffffffffffffffffffffffffffffffffff1681526020019081526020016000208281548110151561046f57fe5b9060005260206000209060050201600401541115156104f6576040517f08c379a00000000000000000000000000000000000000000000000000000000081526004018080602001828103825260178152602001807f63616e277420756e6c696b65207468697320747765657400000000000000000081525060200191505060405180910390fd5b6000808373ffffffffffffffffffffffffffffffffffffffff1673ffffffffffffffffffffffffffffffffffffffff1681526020019081526020016000208181548110151561054157fe5b906000526020600020906005020160040160008154809291906001900391905055507f762c2616349603ac16eba0de8e6141b79129a07ab63bd99e0a80b3a4717169433383836000808773ffffffffffffffffffffffffffffffffffffffff1673ffffffffffffffffffffffffffffffffffffffff168152602001908152602001600020858154811015156105d257fe5b906000526020600020906005020160040154604051808573ffffffffffffffffffffffffffffffffffffffff1673ffffffffffffffffffffffffffffffffffffffff1681526020018473ffffffffffffffffffffffffffffffffffffffff1673ffffffffffffffffffffffffffffffffffffffff16815260200183815260200182815260200194505050505060405180910390a15050565b610672610b18565b60a0604051908101604052808381526020014281526020013373ffffffffffffffffffffffffffffffffffffffff1681526020016000803373ffffffffffffffffffffffffffffffffffffffff1673ffffffffffffffffffffffffffffffffffffffff168152602001908152602001600020805490508152602001600081525090506000803373ffffffffffffffffffffffffffffffffffffffff1673ffffffffffffffffffffffffffffffffffffffff1681526020019081526020016000208190806001815401808255809150509060018203906000526020600020906005020160009091929091909150600082015181600001908051906020019061077a929190610b5e565b506020820151816001015560408201518160020160006101000a81548173ffffffffffffffffffffffffffffffffffffffff021916908373ffffffffffffffffffffffffffffffffffffffff16021790555060608201518160030155608082015181600401555050507f16fd3c13e9d46923e0a8bce11c7b473ec508a72e6c96cd2404b29ce972afc29e8160600151826040015183600001518460200151604051808581526020018473ffffffffffffffffffffffffffffffffffffffff1673ffffffffffffffffffffffffffffffffffffffff16815260200180602001838152602001828103825284818151815260200191508051906020019080838360005b8381101561089657808201518184015260208101905061087b565b50505050905090810190601f1680156108c35780820380516001836020036101000a031916815260200191505b509550505050505060405180910390a15050565b6000808373ffffffffffffffffffffffffffffffffffffffff1673ffffffffffffffffffffffffffffffffffffffff1681526020019081526020016000208181548110151561092257fe5b9060005260206000209060050201600401600081548092919060010191905055507fe8a76fc0f16d11a00d1e93b689b63d76cf60af914dd3d915375dc41d01a0c3c83383836000808773ffffffffffffffffffffffffffffffffffffffff1673ffffffffffffffffffffffffffffffffffffffff168152602001908152602001600020858154811015156109b257fe5b906000526020600020906005020160040154604051808573ffffffffffffffffffffffffffffffffffffffff1673ffffffffffffffffffffffffffffffffffffffff1681526020018473ffffffffffffffffffffffffffffffffffffffff1673ffffffffffffffffffffffffffffffffffffffff16815260200183815260200182815260200194505050505060405180910390a15050565b6000806000905060008090505b6000808573ffffffffffffffffffffffffffffffffffffffff1673ffffffffffffffffffffffffffffffffffffffff16815260200190815260200160002080549050811015610b0e576000808573ffffffffffffffffffffffffffffffffffffffff1673ffffffffffffffffffffffffffffffffffffffff16815260200190815260200160002081815481101515610aeb57fe5b906000526020600020906005020160040154820191508080600101915050610a57565b5080915050919050565b60a0604051908101604052806060815260200160008152602001600073ffffffffffffffffffffffffffffffffffffffff16815260200160008152602001600081525090565b828054600181600116156101000203166002900490600052602060002090601f016020900481019282601f10610b9f57805160ff1916838001178555610bcd565b82800160010185558215610bcd579182015b82811115610bcc578251825591602001919060010190610bb1565b5b509050610bda9190610bde565b5090565b610c0091905b80821115610bfc576000816000905550600101610be4565b5090565b9056fea165627a7a72305820ed4dd148bfb5552e92eaeecfb6d61c49482c80455afdb1f55dedf076d0e96c430029",
  "source": "// SPDX-License-Identifier: MIT\npragma solidity >=0.4.22 <0.9.0;\n\n// interface IUser {\n//   struct user{\n//         string name;\n//         string biodata;\n//     }\n//   function getProfile(address Useraddress) external returns(user memory);\n// }\ncontract Twitter {\n  \n  struct tweets{\n  string content;\n  uint256 timestamp;\n  address author;\n  uint id;\n  uint likes;\n}\n\nmapping(address => tweets[]) tweet;\n\nevent TweetCreated(uint256 id, address author, string content, uint256 timestamp);\nevent TweetLiked(address liker, address tweetAuthor, uint256 tweetId, uint256 newLikeCount);\nevent TweetUnliked(address unliker, address tweetAuthor, uint256 tweetId, uint256 newLikeCount);\n\n// IUser userContract;\n// constructor(address UserContractAddress)\n// {\n//   userContract = IUser(UserContractAddress);\n// }\n\n// modifier onlyRegistered(){\n//   IUser.user memory newuser = userContract.getProfile(msg.sender);\n//   require(bytes(newuser.name).length>0, \"you don't have a profile\");\n//   _;\n// }\n//store tweets\nfunction storeTweet(string memory content) public {\n  tweets memory onetweet = tweets({\n    content:content,\n    timestamp: block.timestamp,\n    author: msg.sender,\n    id: tweet[msg.sender].length,\n    likes:0\n  });\n  tweet[msg.sender].push(onetweet);\n  emit TweetCreated(onetweet.id, onetweet.author, onetweet.content, onetweet.timestamp);\n}\n\n//get a particular tweet\nfunction getTweet(address author, uint id) public view returns(string memory){\n  return tweet[author][id].content;\n}\n\n//like tweet\nfunction likeTweet(address author, uint id) external {\n  tweet[author][id].likes++;\n  emit TweetLiked(msg.sender, author, id, tweet[author][id].likes);\n}\n\n//unlike tweet\nfunction unlikeTweet(address author, uint id) external {\n  require(tweet[author][id].likes >0, \"can't unlike this tweet\");\n  tweet[author][id].likes--;\n  emit TweetUnliked(msg.sender, author, id, tweet[author][id].likes);\n}\n\n//function to calculate total tweet likes for the user\nfunction getTotalLikes(address user) public view returns(uint){\n  uint total = 0;\n  for(uint i = 0; i<tweet[user].length;i++ ){\n    total += tweet[user][i].likes;\n  }\n  return total;\n}\n  \n}\n",
  "sourcePath": "/Users/admin/Twitter-Dapp/contracts/Twitter.sol",
  "compiler": {
    "name": "solc",
    "version": "0.5.1+commit.c8a2cb62.Emscripten.clang"
  },
  "schemaVersion": "3.4.16",
  "updatedAt": "2023-11-30T17:04:48.909Z",
  "networkType": "ethereum",
  "devdoc": {
    "methods": {}
  },
  "userdoc": {
    "methods": {}
  }
}