{
  "contractName": "Twitter",
  "abi": [
    {
      "inputs": [
        {
          "name": "UserContractAddress",
          "type": "address"
        }
      ],
      "payable": false,
      "stateMutability": "nonpayable",
      "type": "constructor"
    },
    {
      "anonymous": false,
      "inputs": [
        {
          "indexed": false,
          "name": "id",
          "type": "uint256"
        },
        {
          "indexed": false,
          "name": "author",
          "type": "address"
        },
        {
          "indexed": false,
          "name": "content",
          "type": "uint256"
        },
        {
          "indexed": false,
          "name": "timestamp",
          "type": "uint256"
        }
      ],
      "name": "TweetCreated",
      "type": "event"
    },
    {
      "anonymous": false,
      "inputs": [
        {
          "indexed": false,
          "name": "liker",
          "type": "address"
        },
        {
          "indexed": false,
          "name": "tweetAuthor",
          "type": "address"
        },
        {
          "indexed": false,
          "name": "tweetId",
          "type": "uint256"
        },
        {
          "indexed": false,
          "name": "newLikeCount",
          "type": "uint256"
        }
      ],
      "name": "TweetLiked",
      "type": "event"
    },
    {
      "anonymous": false,
      "inputs": [
        {
          "indexed": false,
          "name": "unliker",
          "type": "address"
        },
        {
          "indexed": false,
          "name": "tweetAuthor",
          "type": "address"
        },
        {
          "indexed": false,
          "name": "tweetId",
          "type": "uint256"
        },
        {
          "indexed": false,
          "name": "newLikeCount",
          "type": "uint256"
        }
      ],
      "name": "TweetUnliked",
      "type": "event"
    },
    {
      "constant": false,
      "inputs": [
        {
          "name": "content",
          "type": "uint256"
        }
      ],
      "name": "storeTweet",
      "outputs": [],
      "payable": false,
      "stateMutability": "nonpayable",
      "type": "function"
    },
    {
      "constant": true,
      "inputs": [
        {
          "name": "author",
          "type": "address"
        },
        {
          "name": "id",
          "type": "uint256"
        }
      ],
      "name": "getTweet",
      "outputs": [
        {
          "name": "",
          "type": "uint256"
        }
      ],
      "payable": false,
      "stateMutability": "view",
      "type": "function"
    },
    {
      "constant": true,
      "inputs": [
        {
          "name": "author",
          "type": "address"
        }
      ],
      "name": "getTweets",
      "outputs": [
        {
          "components": [
            {
              "name": "content",
              "type": "uint256"
            },
            {
              "name": "timestamp",
              "type": "uint256"
            },
            {
              "name": "author",
              "type": "address"
            },
            {
              "name": "id",
              "type": "uint256"
            },
            {
              "name": "likes",
              "type": "uint256"
            }
          ],
          "name": "",
          "type": "tuple[]"
        }
      ],
      "payable": false,
      "stateMutability": "view",
      "type": "function"
    },
    {
      "constant": false,
      "inputs": [
        {
          "name": "author",
          "type": "address"
        },
        {
          "name": "id",
          "type": "uint256"
        }
      ],
      "name": "likeTweet",
      "outputs": [],
      "payable": false,
      "stateMutability": "nonpayable",
      "type": "function"
    },
    {
      "constant": false,
      "inputs": [
        {
          "name": "author",
          "type": "address"
        },
        {
          "name": "id",
          "type": "uint256"
        }
      ],
      "name": "unlikeTweet",
      "outputs": [],
      "payable": false,
      "stateMutability": "nonpayable",
      "type": "function"
    },
    {
      "constant": true,
      "inputs": [
        {
          "name": "user",
          "type": "address"
        }
      ],
      "name": "getTotalLikes",
      "outputs": [
        {
          "name": "",
          "type": "uint256"
        }
      ],
      "payable": false,
      "stateMutability": "view",
      "type": "function"
    }
  ],
  "bytecode": "0x608060405234801561001057600080fd5b506040516020806112e4833981018060405261002f919081019061008a565b80600160006101000a81548173ffffffffffffffffffffffffffffffffffffffff021916908373ffffffffffffffffffffffffffffffffffffffff160217905550506100e5565b600061008282516100d3565b905092915050565b60006020828403121561009c57600080fd5b60006100aa84828501610076565b91505092915050565b600073ffffffffffffffffffffffffffffffffffffffff82169050919050565b60006100de826100b3565b9050919050565b6111f0806100f46000396000f3fe608060405260043610610072576000357c010000000000000000000000000000000000000000000000000000000090048063112f54e3146100775780633d9b569f146100b457806363378216146100dd578063820785cc146101065780639e92b09314610143578063d5e3368614610180575b600080fd5b34801561008357600080fd5b5061009e60048036036100999190810190610d51565b6101a9565b6040516100ab9190611017565b60405180910390f35b3480156100c057600080fd5b506100db60048036036100d69190810190610d51565b610210565b005b3480156100e957600080fd5b5061010460048036036100ff9190810190610d51565b6104de565b005b34801561011257600080fd5b5061012d60048036036101289190810190610d28565b61070a565b60405161013a9190611017565b60405180910390f35b34801561014f57600080fd5b5061016a60048036036101659190810190610d28565b6107d8565b6040516101779190610fb5565b60405180910390f35b34801561018c57600080fd5b506101a760048036036101a29190810190610dce565b6108f4565b005b60008060008473ffffffffffffffffffffffffffffffffffffffff1673ffffffffffffffffffffffffffffffffffffffff168152602001908152602001600020828154811015156101f657fe5b906000526020600020906005020160000154905092915050565b610218610bce565b600160009054906101000a900473ffffffffffffffffffffffffffffffffffffffff1673ffffffffffffffffffffffffffffffffffffffff16630f53a470336040518263ffffffff167c010000000000000000000000000000000000000000000000000000000002815260040161028f9190610f55565b600060405180830381600087803b1580156102a957600080fd5b505af11580156102bd573d6000803e3d6000fd5b505050506040513d6000823e3d601f19601f820116820180604052506102e69190810190610d8d565b90506000816000015151111515610332576040517f08c379a000000000000000000000000000000000000000000000000000000000815260040161032990610ff7565b60405180910390fd5b60008060008573ffffffffffffffffffffffffffffffffffffffff1673ffffffffffffffffffffffffffffffffffffffff1681526020019081526020016000208381548110151561037f57fe5b9060005260206000209060050201600401541115156103d3576040517f08c379a00000000000000000000000000000000000000000000000000000000081526004016103ca90610fd7565b60405180910390fd5b6000808473ffffffffffffffffffffffffffffffffffffffff1673ffffffffffffffffffffffffffffffffffffffff1681526020019081526020016000208281548110151561041e57fe5b906000526020600020906005020160040160008154809291906001900391905055507f762c2616349603ac16eba0de8e6141b79129a07ab63bd99e0a80b3a4717169433384846000808873ffffffffffffffffffffffffffffffffffffffff1673ffffffffffffffffffffffffffffffffffffffff168152602001908152602001600020868154811015156104af57fe5b9060005260206000209060050201600401546040516104d19493929190610f70565b60405180910390a1505050565b6104e6610bce565b600160009054906101000a900473ffffffffffffffffffffffffffffffffffffffff1673ffffffffffffffffffffffffffffffffffffffff16630f53a470336040518263ffffffff167c010000000000000000000000000000000000000000000000000000000002815260040161055d9190610f55565b600060405180830381600087803b15801561057757600080fd5b505af115801561058b573d6000803e3d6000fd5b505050506040513d6000823e3d601f19601f820116820180604052506105b49190810190610d8d565b90506000816000015151111515610600576040517f08c379a00000000000000000000000000000000000000000000000000000000081526004016105f790610ff7565b60405180910390fd5b6000808473ffffffffffffffffffffffffffffffffffffffff1673ffffffffffffffffffffffffffffffffffffffff1681526020019081526020016000208281548110151561064b57fe5b9060005260206000209060050201600401600081548092919060010191905055507fe8a76fc0f16d11a00d1e93b689b63d76cf60af914dd3d915375dc41d01a0c3c83384846000808873ffffffffffffffffffffffffffffffffffffffff1673ffffffffffffffffffffffffffffffffffffffff168152602001908152602001600020868154811015156106db57fe5b9060005260206000209060050201600401546040516106fd9493929190610f70565b60405180910390a1505050565b6000806000905060008090505b6000808573ffffffffffffffffffffffffffffffffffffffff1673ffffffffffffffffffffffffffffffffffffffff168152602001908152602001600020805490508110156107ce576000808573ffffffffffffffffffffffffffffffffffffffff1673ffffffffffffffffffffffffffffffffffffffff168152602001908152602001600020818154811015156107ab57fe5b906000526020600020906005020160040154820191508080600101915050610717565b5080915050919050565b60606000808373ffffffffffffffffffffffffffffffffffffffff1673ffffffffffffffffffffffffffffffffffffffff168152602001908152602001600020805480602002602001604051908101604052809291908181526020016000905b828210156108e9578382906000526020600020906005020160a0604051908101604052908160008201548152602001600182015481526020016002820160009054906101000a900473ffffffffffffffffffffffffffffffffffffffff1673ffffffffffffffffffffffffffffffffffffffff1673ffffffffffffffffffffffffffffffffffffffff1681526020016003820154815260200160048201548152505081526020019060010190610838565b505050509050919050565b6108fc610bce565b600160009054906101000a900473ffffffffffffffffffffffffffffffffffffffff1673ffffffffffffffffffffffffffffffffffffffff16630f53a470336040518263ffffffff167c01000000000000000000000000000000000000000000000000000000000281526004016109739190610f55565b600060405180830381600087803b15801561098d57600080fd5b505af11580156109a1573d6000803e3d6000fd5b505050506040513d6000823e3d601f19601f820116820180604052506109ca9190810190610d8d565b90506000816000015151111515610a16576040517f08c379a0000000000000000000000000000000000000000000000000000000008152600401610a0d90610ff7565b60405180910390fd5b610a1e610be8565b60a0604051908101604052808481526020014281526020013373ffffffffffffffffffffffffffffffffffffffff1681526020016000803373ffffffffffffffffffffffffffffffffffffffff1673ffffffffffffffffffffffffffffffffffffffff168152602001908152602001600020805490508152602001600081525090506000803373ffffffffffffffffffffffffffffffffffffffff1673ffffffffffffffffffffffffffffffffffffffff1681526020019081526020016000208190806001815401808255809150509060018203906000526020600020906005020160009091929091909150600082015181600001556020820151816001015560408201518160020160006101000a81548173ffffffffffffffffffffffffffffffffffffffff021916908373ffffffffffffffffffffffffffffffffffffffff16021790555060608201518160030155608082015181600401555050507fccbaef1f451c22d7796f847b2688882414bad56380cd3eac0c438f2923710ac08160600151826040015183600001518460200151604051610bc19493929190611032565b60405180910390a1505050565b604080519081016040528060608152602001606081525090565b60a0604051908101604052806000815260200160008152602001600073ffffffffffffffffffffffffffffffffffffffff16815260200160008152602001600081525090565b6000610c3a8235611131565b905092915050565b600082601f8301121515610c5557600080fd5b8151610c68610c63826110a4565b611077565b91508082526020830160208301858383011115610c8457600080fd5b610c8f838284611183565b50505092915050565b600060408284031215610caa57600080fd5b610cb46040611077565b9050600082015167ffffffffffffffff811115610cd057600080fd5b610cdc84828501610c42565b600083015250602082015167ffffffffffffffff811115610cfc57600080fd5b610d0884828501610c42565b60208301525092915050565b6000610d208235611143565b905092915050565b600060208284031215610d3a57600080fd5b6000610d4884828501610c2e565b91505092915050565b60008060408385031215610d6457600080fd5b6000610d7285828601610c2e565b9250506020610d8385828601610d14565b9150509250929050565b600060208284031215610d9f57600080fd5b600082015167ffffffffffffffff811115610db957600080fd5b610dc584828501610c98565b91505092915050565b600060208284031215610de057600080fd5b6000610dee84828501610d14565b91505092915050565b610e008161114d565b82525050565b610e0f816110f5565b82525050565b6000610e20826110dd565b808452602084019350610e32836110d0565b60005b82811015610e6457610e48868351610ede565b610e51826110e8565b915060a086019550600181019050610e35565b50849250505092915050565b6000601782527f63616e277420756e6c696b6520746869732074776565740000000000000000006020830152604082019050919050565b6000601882527f796f7520646f6e2774206861766520612070726f66696c6500000000000000006020830152604082019050919050565b60a082016000820151610ef46000850182610f46565b506020820151610f076020850182610f46565b506040820151610f1a6040850182610e06565b506060820151610f2d6060850182610f46565b506080820151610f406080850182610f46565b50505050565b610f4f81611127565b82525050565b6000602082019050610f6a6000830184610df7565b92915050565b6000608082019050610f856000830187610df7565b610f926020830186610e06565b610f9f6040830185610f46565b610fac6060830184610f46565b95945050505050565b60006020820190508181036000830152610fcf8184610e15565b905092915050565b60006020820190508181036000830152610ff081610e70565b9050919050565b6000602082019050818103600083015261101081610ea7565b9050919050565b600060208201905061102c6000830184610f46565b92915050565b60006080820190506110476000830187610f46565b6110546020830186610e06565b6110616040830185610f46565b61106e6060830184610f46565b95945050505050565b6000604051905081810181811067ffffffffffffffff8211171561109a57600080fd5b8060405250919050565b600067ffffffffffffffff8211156110bb57600080fd5b601f19601f8301169050602081019050919050565b6000602082019050919050565b600081519050919050565b6000602082019050919050565b600061110082611107565b9050919050565b600073ffffffffffffffffffffffffffffffffffffffff82169050919050565b6000819050919050565b600061113c82611107565b9050919050565b6000819050919050565b60006111588261115f565b9050919050565b600061116a82611171565b9050919050565b600061117c82611107565b9050919050565b60005b838110156111a1578082015181840152602081019050611186565b838111156111b0576000848401525b5050505056fea265627a7a723058202a44d43b9863c8af15ddb70c6cd91131b4ca63e54f28b45a354269116068a9286c6578706572696d656e74616cf50037",
  "source": "// SPDX-License-Identifier: MIT\npragma solidity 0.5.1;\npragma experimental ABIEncoderV2;\n\n\ninterface IUser {\n  struct user{\n        string name;\n        string biodata;\n    }\n  function getProfile(address Useraddress) external returns(user memory);\n}\ncontract Twitter {\n  \n  struct tweets{\n  uint content;\n  uint256 timestamp;\n  address author;\n  uint id;\n  uint likes;\n}\n\nmapping(address => tweets[]) tweet;\n\nevent TweetCreated(uint256 id, address author, uint content, uint256 timestamp);\nevent TweetLiked(address liker, address tweetAuthor, uint256 tweetId, uint256 newLikeCount);\nevent TweetUnliked(address unliker, address tweetAuthor, uint256 tweetId, uint256 newLikeCount);\n\nIUser userContract;\nconstructor(address UserContractAddress) public\n{\n  userContract = IUser(UserContractAddress);\n}\n\nmodifier onlyRegistered(){\n  IUser.user memory newuser = userContract.getProfile(msg.sender);\n  require(bytes(newuser.name).length>0, \"you don't have a profile\");\n  _;\n}\n//store tweets\nfunction storeTweet(uint content) public onlyRegistered{\n  tweets memory onetweet = tweets({\n    content:content,\n    timestamp: block.timestamp,\n    author: msg.sender,\n    id: tweet[msg.sender].length,\n    likes:0\n  });\n  tweet[msg.sender].push(onetweet);\n  emit TweetCreated(onetweet.id, onetweet.author, onetweet.content, onetweet.timestamp);\n}\n\n//get a particular tweet\nfunction getTweet(address author, uint id) public view returns(uint){\n  return tweet[author][id].content;\n}\n\nfunction getTweets(address author) public view returns(tweets[] memory){\n  return tweet[author];\n}\n\n\n\n//like tweet\nfunction likeTweet(address author, uint id) external onlyRegistered{\n  tweet[author][id].likes++;\n  emit TweetLiked(msg.sender, author, id, tweet[author][id].likes);\n}\n\n//unlike tweet\nfunction unlikeTweet(address author, uint id) external onlyRegistered{\n  require(tweet[author][id].likes >0, \"can't unlike this tweet\");\n  tweet[author][id].likes--;\n  emit TweetUnliked(msg.sender, author, id, tweet[author][id].likes);\n}\n\n//function to calculate total tweet likes for the user\nfunction getTotalLikes(address user) public view returns(uint){\n  uint total = 0;\n  for(uint i = 0; i<tweet[user].length;i++ ){\n    total += tweet[user][i].likes;\n  }\n  return total;\n}\n  \n}\n\n\n\n\n\n",
  "sourcePath": "/Users/admin/Twitter-Dapp/contracts/Twitter.sol",
  "compiler": {
    "name": "solc",
    "version": "0.5.1+commit.c8a2cb62.Emscripten.clang"
  },
  "schemaVersion": "3.4.16",
  "updatedAt": "2023-12-05T07:38:03.033Z",
  "networkType": "ethereum",
  "devdoc": {
    "methods": {}
  },
  "userdoc": {
    "methods": {}
  }
}