{
  "contractName": "User",
  "abi": [
    {
      "constant": true,
      "inputs": [
        {
          "name": "",
          "type": "address"
        }
      ],
      "name": "usermap",
      "outputs": [
        {
          "name": "name",
          "type": "string"
        },
        {
          "name": "biodata",
          "type": "string"
        }
      ],
      "payable": false,
      "stateMutability": "view",
      "type": "function"
    },
    {
      "constant": false,
      "inputs": [
        {
          "name": "name",
          "type": "string"
        },
        {
          "name": "biodata",
          "type": "string"
        }
      ],
      "name": "setProfile",
      "outputs": [],
      "payable": false,
      "stateMutability": "nonpayable",
      "type": "function"
    },
    {
      "constant": true,
      "inputs": [
        {
          "name": "Useraddress",
          "type": "address"
        }
      ],
      "name": "getProfile",
      "outputs": [
        {
          "components": [
            {
              "name": "name",
              "type": "string"
            },
            {
              "name": "biodata",
              "type": "string"
            }
          ],
          "name": "",
          "type": "tuple"
        }
      ],
      "payable": false,
      "stateMutability": "view",
      "type": "function"
    }
  ],
  "bytecode": "0x608060405234801561001057600080fd5b5061083e806100206000396000f3fe608060405260043610610051576000357c0100000000000000000000000000000000000000000000000000000000900480630f53a47014610056578063719e37ae14610093578063a0fb19be146100bc575b600080fd5b34801561006257600080fd5b5061007d600480360361007891908101906105b3565b6100fa565b60405161008a91906106f9565b60405180910390f35b34801561009f57600080fd5b506100ba60048036036100b591908101906105dc565b610296565b005b3480156100c857600080fd5b506100e360048036036100de91908101906105b3565b610336565b6040516100f19291906106c2565b60405180910390f35b61010261048a565b6000808373ffffffffffffffffffffffffffffffffffffffff1673ffffffffffffffffffffffffffffffffffffffff168152602001908152602001600020604080519081016040529081600082018054600181600116156101000203166002900480601f0160208091040260200160405190810160405280929190818152602001828054600181600116156101000203166002900480156101e45780601f106101b9576101008083540402835291602001916101e4565b820191906000526020600020905b8154815290600101906020018083116101c757829003601f168201915b50505050508152602001600182018054600181600116156101000203166002900480601f0160208091040260200160405190810160405280929190818152602001828054600181600116156101000203166002900480156102865780601f1061025b57610100808354040283529160200191610286565b820191906000526020600020905b81548152906001019060200180831161026957829003601f168201915b5050505050815250509050919050565b61029e61048a565b6040805190810160405280848152602001838152509050806000803373ffffffffffffffffffffffffffffffffffffffff1673ffffffffffffffffffffffffffffffffffffffff16815260200190815260200160002060008201518160000190805190602001906103109291906104a4565b50602082015181600101908051906020019061032d9291906104a4565b50905050505050565b6000602052806000526040600020600091509050806000018054600181600116156101000203166002900480601f0160208091040260200160405190810160405280929190818152602001828054600181600116156101000203166002900480156103e25780601f106103b7576101008083540402835291602001916103e2565b820191906000526020600020905b8154815290600101906020018083116103c557829003601f168201915b505050505090806001018054600181600116156101000203166002900480601f0160208091040260200160405190810160405280929190818152602001828054600181600116156101000203166002900480156104805780601f1061045557610100808354040283529160200191610480565b820191906000526020600020905b81548152906001019060200180831161046357829003601f168201915b5050505050905082565b604080519081016040528060608152602001606081525090565b828054600181600116156101000203166002900490600052602060002090601f016020900481019282601f106104e557805160ff1916838001178555610513565b82800160010185558215610513579182015b828111156105125782518255916020019190600101906104f7565b5b5090506105209190610524565b5090565b61054691905b8082111561054257600081600090555060010161052a565b5090565b90565b6000610555823561079f565b905092915050565b600082601f830112151561057057600080fd5b813561058361057e82610748565b61071b565b9150808252602083016020830185838301111561059f57600080fd5b6105aa8382846107b1565b50505092915050565b6000602082840312156105c557600080fd5b60006105d384828501610549565b91505092915050565b600080604083850312156105ef57600080fd5b600083013567ffffffffffffffff81111561060957600080fd5b6106158582860161055d565b925050602083013567ffffffffffffffff81111561063257600080fd5b61063e8582860161055d565b9150509250929050565b600061065382610774565b8084526106678160208601602086016107c0565b610670816107f3565b602085010191505092915050565b6000604083016000830151848203600086015261069b8282610648565b915050602083015184820360208601526106b58282610648565b9150508091505092915050565b600060408201905081810360008301526106dc8185610648565b905081810360208301526106f08184610648565b90509392505050565b60006020820190508181036000830152610713818461067e565b905092915050565b6000604051905081810181811067ffffffffffffffff8211171561073e57600080fd5b8060405250919050565b600067ffffffffffffffff82111561075f57600080fd5b601f19601f8301169050602081019050919050565b600081519050919050565b600073ffffffffffffffffffffffffffffffffffffffff82169050919050565b60006107aa8261077f565b9050919050565b82818337600083830152505050565b60005b838110156107de5780820151818401526020810190506107c3565b838111156107ed576000848401525b50505050565b6000601f19601f830116905091905056fea265627a7a7230582060e4be6a5cbeb2f50099a290ac8112d96ec424bb20588544289f4715bc1ff7576c6578706572696d656e74616cf50037",
  "source": "// SPDX-License-Identifier: MIT\npragma solidity 0.5.1;\npragma experimental ABIEncoderV2;\ncontract User{\n    struct user{\n        string name;\n        string biodata;\n    }\n    mapping (address=>user) public usermap;\n\n    function setProfile(string memory name, string memory biodata) public{\n        user memory newuser = user({\n            name:name,\n            biodata:biodata\n        });\n        usermap[msg.sender] = newuser;\n    }\n    function getProfile(address Useraddress) public view returns(user memory){\n        return usermap[Useraddress];\n    }\n}\n",
  "sourcePath": "/Users/admin/Twitter-Dapp/contracts/User.sol",
  "compiler": {
    "name": "solc",
    "version": "0.5.1+commit.c8a2cb62.Emscripten.clang"
  },
  "schemaVersion": "3.4.16",
  "updatedAt": "2023-12-05T07:38:03.036Z",
  "networkType": "ethereum",
  "devdoc": {
    "methods": {}
  },
  "userdoc": {
    "methods": {}
  }
}